:040000000201BB320C
:03000B00020400EC
:0100130032BA
:01001B0032B2
:0100230032AA
:01002B0032A2
:030033000203378E
:01003B003292
:01004300328A
:01004B003282
:01005300327A
:01005B003272
:01006300326A
:03006B0002033A53
:030073000213D69F
:03007B00020FDE93
:030083000203E88D
:03008B000203521B
:0300930002039DC8
:03009B00020FDB76
:0300A30002143113
:0300AB000214320A
:0300B30002143301
:0300BB00021436F6
:0300C300020D52D9
:0300CB000213D746
:0300D300020D77A4
:0300DB000213D934
:0300E300020FE029
:0300EB000214E517
:0300F300020FDC1D
:0300FB00020FDD14
:03010300020FDF09
:03010B00020FE1FF
:03011300020FE2F6
:03011B0002149239
:0301230002142F94
:03012B0002143487
:030133000214377C
:03013B0002143972
:0301430002143073
:03014B0002143566
:030153000214385B
:03015B0002143A51
:03016300021491F2
:03016B0002142754
:030173000214294A
:03017B0002142B40
:0301830002142D36
:03018B0002142833
:0301930002142A29
:03019B0002142C1F
:0301A30002142E15
:0301AB000213D864
:0301B3000213BC78
:04021400C200C20161
:03025B000201B6E7
:0501B60012025E80FE54
:0C025E00120D1BE500D2E890E668E044B9
:0E026A0008F090E65CE04401F090E65CE044B1
:0E02780010F090E65CE04420F090E65CE0447C
:0E02860008F0D2DDD2AF90E680E0440AF0909E
:0D02940005DC12143B90E680E0FA54F7F010
:0802A100120DE71000028003BA
:0302A900120FE34E
:0502AC0010010280F0CA
:0E02B10090E682E0FA44C0F090E6817401F01D
:0C02BF0043870100000000000000E50A79
:0E02CB00702690E682E0FA30E60B90E682E0C4
:0702D900FA30E0030202B15C
:0E02E00090E682E0FA30E70B90E682E0FA301A
:0502EE00E1030202B172
:0E02F30090E682E0FA30E60890E682E0FA201B
:02030100E01604
:0B03030090E682E0FA20E7030202A16E
:0B030E0090E682E0FA20E1030202A169
:0E03190090000512143B90E680E04401F09045
:0E032700000F12143B90E680E0FA54FEF00244
:0203350002A123
:03033700C2DC32F3
:0C033A00C0E0C082C083D2005391EF905D
:0C034600E65D7401F0D083D082D0E0327C
:0C035200C021C0E0C0F0C082C083C00227
:0E035E00C003C004C005C006C007C000C00137
:0E036C00C0D075D0007582001212BF5391EF01
:0E037A0090E65D7410F0D0D0D001D000D00716
:0E038800D006D005D004D003D002D083D0829E
:07039600D0F0D0E0D02132CD
:0C039D00C021C0E0C0F0C082C083C002DC
:0E03A900C003C004C005C006C007C000C001EC
:0E03B700C0D075D0007582011212BF5391EFB5
:0E03C50090E65D7420F0D0D0D001D000D007BB
:0E03D300D006D005D004D003D002D083D08253
:0703E100D0F0D0E0D0213282
:0C03E800C0E0C082C083D2015391EF90AE
:0C03F400E65D7408F0D083D082D0E032C7
:0C040000C021C0E0C0F0C082C083C00278
:0E040C00C003C004C005C006C007C000C00188
:0E041A00C0D075D000120D9CD0D0D001D00003
:0E042800D007D006D005D004D003D002D08378
:09043600D082D0F0D0E0D02132D8
:07021800E4F522F523E4F5F3
:04021F0024F5257528
:060223002600752700759E
:060229002800E4F529F5B0
:05022F002A753E007578
:060234003F00E4F540F577
:05023A0041E4F542F56E
:05023F00437544007549
:050244004500754600B5
:0D043F0053B2FE74025580FAE4BA020104C3
:06044C00F58243B201221B
:0D0452009014EA75F080120FB043800890FE
:0E045F00000112143B5380F790000102143B81
:0E046D00AA829014FC75F080C002120FB0D06D
:07047B0002EA6003120452C3
:0A04820043B44043A04053A0BF2242
:0E048C0090151275F080120FB075808975B250
:0E049A0089A2AFE433FAC2AF90E60174E3F03A
:0E04A8000000000090E60B7403F0000000005E
:0E04B60090E61274A2F00000000090E61374AD
:0E04C400E2F00000000090E61474E0F000008A
:0E04D200000090E615E4F00000000090E6182F
:0E04E000E4F00000000090E619E4F0000000D7
:0E04EE000090E61AE4F00000000090E60474AE
:0E04FC0080F00000000090E6047482F0000022
:0D050A00000090E6047484F00000000090F2
:0E051700E6047486F00000000090E604E4F0B4
:0E0525000000000090E6497482F00000000023
:0E05330090E6497482F00000000090E6187413
:0E05410030F00000000090E619744CF000004D
:0D054F00000090E61A7448F00000000090D3
:0E055C00E6227402F00000000090E623E4F0B6
:0E056A000000000090E6247402F00000000083
:0E05780090E625E4F00000000090E670E4F04C
:0E0586000000000090E60274D8F000000000B3
:0E05940090E603740EF000000000EA24FF92CF
:0E05A200AF90153375F080120FB08580821275
:0905B0000F7F90153875F08012E0
:0905B9000FB085B282120F7F9091
:0805C200153E75F080020FB038
:0E05CA0090154175F080120FB090E601E054DC
:0E05D800FDF043B3015390FE43B2DC4380D8E4
:0D05E60090153375F080120FB085808212E1
:0905F3000F7F90153875F080129D
:0905FC000FB085B282120F7F904E
:0C060500156275F080120FB085A0821203
:090611000F7F90156875F080124E
:09061A000FB085B482120F7F902D
:08062300153E75F080020FB0D6
:04062B00AA827B0024
:04062F00EBB5020025
:0A0633005037EB250FFCE43510FDF5
:0C063D00AE118C828D838EF0121493FCA1
:020649007D0032
:03064B00BD0800E7
:0E064E0050195380FBEC30E00543900180030F
:03065C005390FEBA
:0A065F00438004ECC313FC0D80E29D
:030669000B80C340
:01066C00226B
:09066D0090E68AE4F090E68BF0BF
:0906760090E6A0E0FA20E1F82270
:0E067F00AA8290E678E0FB30E21890E679E07F
:0C068D00F52F90E678E04440F0C0021227
:080699000714E582D00270682D
:0E06A10090E6787480F090E679EAF012071483
:0C06AF00E5827056E52E604790E679E089
:0506BB00F52FAA2BAB96
:0406C0002CAC2DAD84
:0106C4002E07
:0E06C500ED6036C002C003C004C00512071469
:0E06D300E582D005D004D003D002702ABD010C
:0706E1000690E6787420F09A
:0E06E80090E679E0FE8A828B838CF01213BDBF
:0806F600A3AA82AB831D80C79B
:0B06FE0090E678E04440F07582012295
:0B07090090E678E04440F0758200228A
:020714007A0168
:0E07160090E678E0FB20E006EA60030A80F23D
:0E072400EA601090E678E0FA20E20890E678AD
:05073200E0FA20E104E3
:0407370075820122A4
:04073B0075820022A1
:0E073F00AA8290E678E0FB30E21790E679E0BF
:0B074D00F53490E6787440F0C0021212
:080758000714E582D002705A7B
:0E07600090E6787480F090E679EAF0120714C3
:0A076E00E5827048E5336039AA30D7
:05077800AB31AC32AD15
:01077D003348
:0E077E00ED602E8A828B838CF0121493FEA302
:0E078C00AA82AB8390E679EEF01DC002C00396
:0E079A00C004C005120714E582D005D004D0BB
:0707A80003D00260D1800BB9
:0B07AF0090E678E04440F075820122E3
:0B07BA0090E678E04440F075820022D9
:0807C500AA82AB83ACF07D00B9
:0407CD00EDB50F0077
:0C07D1005020ED2AFEE43BFF8C00ED24DC
:0A07DD0000F582E4343CF583E0F9F6
:0C07E7008E828F8388F01213BD0D80DA23
:0407F30075820122E8
:0907F70085823A7402B53A1990AA
:09080000156E75F080120FB04373
:0C080900290253B1F243B10843B60D00C0
:03081500000000E0
:0A081800E53820E006E5392404F578
:01082200399C
:07082300E53830E002053862
:08082A00E538C313F5387B002B
:04083200EBB53800EA
:0508360040030209204F
:0A083B00EB75F002A42535FCE5364C
:0C08450035F0FDAE378C828D838EF012F2
:060851001493F53BEB24BB
:0A08570000F582E4343CF583E4F080
:090861008B057E000DBD00010EA7
:0C086A00AF387800EDB50709EEB50005C9
:0508760085393D8003FF
:03087B00753D08C0
:0E087E00EB75F002A42401FEE435F0FFEE2538
:07088C0035FEEF3536FFA831
:0408930037753C0079
:05089700E53CB53D0049
:05089C00400302091CED
:0B08A100E5B130E125EB2400FAE4345F
:0A08AC003CFD8A828D83E0FC853C50
:0708B600F005F0740180025F
:0208BD0025E034
:0C08BF00D5F0FBF942048A828D83ECF036
:0A08CB00E53B30E00543B101800376
:0308D50053B1FE1E
:0A08D800E53B30E40543B10880035E
:0308E20053B1F718
:0C08E5007403B53C0D8E828F8388F012E6
:0608F1001493F53B8006A4
:0608F700E53BC313F53BD5
:0908FD000000000043B1047A1070
:0B09060000000000DAFA53B1FB7A1089
:0B09110000000000DAFA053C02089725
:04091C000B02083290
:0C0920007401B53A0F90157E75F080123E
:08092C000FB05329BD53B6F2D0
:0409340075820122A5
:0409380075820122A1
:04093C00758201229D
:040940007582012299
:040944007582012295
:0A094800AA8290E68AE4F0BAB1003A
:050952005003020D132B
:0509570074BFB50200B1
:05095C005003020D1321
:0B096100EA244FFA25E02A90096C738D
:07096C00020BF4020C55021E
:060973000C6F0209DD0219
:060979000B79020B920253
:06097F000D13020D13022E
:060985000CBC020ABB02DB
:06098B000999020D1302A0
:060991000D13020D13021C
:0209970009CA8B
:0D09990090158F75F080120FB04380809094
:0E09A600000112143B90E6487484F07486F051
:0D09B40053807F90159E75F080120FB0905B
:0909C100E68B7401F0758201223D
:0E09CA0090E6BAE0F58212046D90E68B74019F
:0509D800F07582012210
:0E09DD0090E6B8E0FA30E75990E6BAE0FA305A
:0B09EB00E05190E6BEE07003020D1723
:0A09F60090E6BAE0FA752B40752C6C
:0A0A0000E7752D0090E6BEE0F52E2C
:0E0A0A008A8212067FE582600C90E6BEE090C4
:070A1800E68BF0758201225C
:0E0A1F009015B075F080120FB090E6BAE0F5B9
:0B0A2D0082120F7F90153E75F08012C2
:060A38000FB075820022E0
:0E0A3E0090E6B8E0FA20E77190E6BAE0FA2000
:0B0A4C00E06990E6BEE0600312066D5A
:0E0A57009015C675F080120FB090E68BE0F59A
:0B0A650082120F7F90153E75F080128A
:0B0A70000FB090E6BAE0FA7530407558
:0A0A7B0031E775320090E6BEE0F5A9
:0B0A8500338A8212073FE5826009906F
:080A9000E68BE4F075820122FF
:0E0A98009015CE75F080120FB090E6BAE0F522
:0B0AA60082120F7F90153E75F0801249
:060AB1000FB07582002267
:040AB7007582002222
:090ABB0090E6BEE07003F5822212
:0E0AC40090E6B8E0FA30E75390E6BAE0FA7434
:0A0AD200FE5AF5827530BC7531E65E
:070ADC0075320075330112B1
:090AE300073FE5827003F5822251
:0E0AEC0090000112143B90E6BAE0FA74014A41
:090AFA00F582752B40752CE7759F
:060B03002D00752E011209
:0E0B0900067FE582600C90E6BEE090E68BF081
:040B170075820122C0
:040B1B0075820022BD
:070B1F0012066D7A007B0055
:090B260090E6BEE0FCEBB5040012
:0E0B2F005039EB2440F582E434E7F583E0FC16
:0E0B3D0074FE5CF582EB042440FCE434E7FD1A
:050B4B008C308D3175B6
:0A0B50003200753302C002C0031228
:0B0B5A00073FE582D003D00260010AD3
:050B65000B0B0B80BC2E
:0E0B6A0090E740EAF090E68B7401F07582018E
:010B7800225A
:0A0B790090E6BAE0FA8A29752A0016
:0A0B830090E6BBE0FBE44229EB42E0
:050B8D002A758201221F
:0E0B920090E6BAE0FA30E61090E6BBE0FA30EA
:070BA000E60543800180031C
:030BA7005380FE7A
:0E0BAA0090E6BAE0FA90E6BBE0FBEAF455A054
:0E0BB8004BF5A090E68BE4F09015E575F0800B
:0A0BC600120FB085A082120F7F907D
:0E0BD00015F075F080120FB0AAB47B007C40C7
:0E0BDE008A828B838CF0120FB090153E75F05A
:080BEC0080120FB07582012296
:0D0BF4001205CA12045253807F90000112B6
:0E0C0100143B43800890000112143B43808096
:0E0C0F00E58020E7119015F275F080120FB00D
:080C1D0090000112143B80EA73
:0D0C250090153375F080120FB0858082129B
:090C32000F7F90153875F0801257
:090C3B000FB085B282120F7F9008
:0E0C4400153E75F080120FB090E68BE4F0754F
:030C5200820122FA
:0C0C550012066D90E68BE0FA750F4075FA
:080C610010E77511008A8212F0
:060C6900062B758201223A
:040C6F007A007B008C
:050C73000ABA00010BAC
:0E0C7800EA4B601D438004000000005380FB27
:0E0C860000000000C002C00312043FE582D04F
:050C940003D00260DA4C
:0E0C9900C002C00312048CD003D002EA4B60EC
:080CA700077528017582012286
:0D0CAF0090161D75F080120FB075820022A6
:0D0CBC0090E6B8E0FA30E71B90E6BEE0F5E8
:0B0CC9000F90E74075F0001207C59087
:0B0CD400E6BEE090E68BF07582012286
:090CDF0090E6BEE0600312066D10
:0A0CE80090E6BAE0FA753540753663
:0A0CF200E775370090E6BEE0F53824
:0C0CFC0090E6BCE0F5398A821207F7E5AB
:070D080082600475820122E4
:040D0F0075820022C7
:040D130075820022C3
:040D170075820022BF
:0E0D1B0090E600E0FA74E75A90E6004410F00B
:0E0D290090E67AE054FEF090E6007412F012AC
:0C0D37000F4712048C75A08075B48F1259
:0D0D43000DBCD2A9D28C90163A75F080023A
:020D50000FB0E2
:0C0D5200C0E0C082C083C0D075D0000596
:060D5E0022E4B5220205AB
:010D6400236B
:0C0D650075260190E65F7410F0D0D0D02D
:060D710083D082D0E032C5
:0C0D7700C0E0C082C083C0D075D0000571
:060D830024E4B524020582
:010D89002544
:0C0D8A0075270190E65F7440F0D0D0D0D7
:060D960083D082D0E032A0
:0E0D9C00C28C74C0258AF58A7463258CF58C90
:0A0DAA00D28C749C253E4003053EE8
:010DB400221C
:070DB500753E00753F0122AD
:0C0DBC00753E00C28C538EF753890F4324
:0C0DC8008901758AC0758C63C2B9E4F51E
:050DD40040F541E4F5CB
:050DD90042F543E4F5C2
:050DDE0022F523E4F5FD
:040DE30024F52522AC
:0C0DE700E58020E11BE5447020901649D7
:0C0DF30075F080120FB043808075440141
:080DFF005329DF43290180099B
:070E0700754400432920534C
:020E0E0029FEBB
:070E1000E529452A600312E9
:020E17000E9338
:050E1900E53F7001221D
:0A0E1E0090167575F080120FB08574
:060E28004582120F7F90CD
:0E0E2E00167B75F080120FB090E6A3E0F582FF
:0A0E3C00120F7F90168275F08012ED
:0C0E46000FB090E6A4E0F582120F7F9040
:0E0E5200168975F080120FB090E6A5E0F582CB
:0A0E6000120F7F90169075F08012BB
:0C0E6A000FB0858082120F7F85B28212CB
:090E76000F7F90153E75F080120B
:040E7F000FB0852209
:030E830040852384
:030E86004185247F
:030E89004285257A
:050E8C0043753F000565
:020E91004522F8
:030E9300754700A0
:070E960074FC254750012206
:0C0E9D0053B60F740F55B1FB8547F005EC
:050EA900F0741080024E
:020EAE0025E03D
:0C0EB000D5F0FBFC4BF5B18C03E5477559
:090EBC00F003A4FCADF075480040
:090EC50074FD25485003020F42A0
:0C0ECE00AF487800EF2CF9E83D89F005F2
:070EDA00F079017E008006A3
:060EE100E929F9EE33FEE1
:0A0EE700D5F0F7E5295201E52A5283
:0C0EF10006E94E6047740F55B6FEA94795
:0E0EFD007A00EF29FFE83AF88F828883A37508
:0A0F0B000F04751000C003C004C0FD
:0E0F150005C0061214AFAA82D006D005D00483
:0C0F2300D0038AF005F07A107F008006F1
:060F2F00EA2AFAEF33FF8D
:080F3500D5F0F7EA4E4BF5B6CA
:050F3D000548020EC58D
:050F42000547020E96B8
:0E14EA00526573657474696E67204650474101
:0414F8002E0A0D00AB
:0E14FC00526573657474696E6720776174635E
:08150A0068646F672E0A0D00F2
:0E151200537769746368696E6720746F206E8A
:0E1520006F726D616C2046504741206D6F6404
:05152E00652E0A0D000E
:05153300494F412000BA
:06153800204F4541200098
:03153E000A0D0093
:0E154100537769746368696E6720746F204683
:0E154F005047412050524F4752414D206D6F82
:05155D0064650A0D00A9
:0615620020494F43200068
:06156800204F4543200066
:0E156E00436C61696D696E67204A5441470AFB
:02157C000D0060
:0E157E0052656C656173696E67204A5441477F
:03158C000A0D0045
:0E158F00526573657474696E67205048590A7E
:01159D00004D
:0E159E00504859206F7574206F662072657377
:0415AC0065740A0058
:0E15B0004932432072656164206661696C6592
:0815BE006420616464722000E6
:0815C60045503042434C200067
:0E15CE00493243207772697465206661696C4A
:0915DC0065642061646472200062
:0B15E500494F434F4D50454E3A200047
:0215F0002000D9
:0E15F20044656C6179696E6720776169746980
:0E1600006E6720666F7220494E49545F42208B
:0E160E00746F20636F6D6520686967680A0D50
:01161C0000CD
:0E161D004650474120636F6E666967757261C3
:0E162B0074696F6E204641494C45442E0A0DED
:0116390000B0
:0E163A00496E697469616C697A6564210A0DF4
:0116480000A1
:0E1649004650474120697320756E636F6E66D0
:0E1657006967757265643A2064726976696E1F
:0E1665006720494E49545F4220686967680A51
:021673000D0068
:061675005365633A2000FA
:07167B00204550323A200027
:07168200204550343A20001E
:07168900204550363A200015
:0A16900020494F414F45413A200028
:0E0F470075C83475CBFF75CAD975985AD29902
:090F550090169A75F080020FB0AD
:020F5E00AA8265
:050F600010990280FB66
:030F65008A992244
:050F6800AA82BA0A0094
:0A0F6D00500874302AF582020F5E6E
:080F770074372AF582020F5EB7
:0E0F7F00E582FAC4540FFB740F5BF582C002CA
:0D0F8D00120F68D002740F5AF582020F682F
:0E0F9A00AA82AB838B82C002C003120F7FD0ED
:080FA80003D0028A82020F7FD0
:060FB000AA82AB83ACF045
:0E0FB6008A828B838CF0121493FD60180ABAA5
:030FC40000010B1E
:0E0FC7008D82C002C003C004120F5ED004D0A1
:050FD50003D00280DCE6
:010FDA0022F4
:05169A000D0A2D3E00C9
:0E3E000012010002FFFFFF40B4049999010077
:043E0E0001020001AC
:0A3E12000A060002FFFFFF40010056
:093E1C00090235000101008032A9
:0E3E25000904000005FFFFFF00070501020071
:0E3E33000200070581020002000705020200DE
:0E3E4100020007058402000200070586020049
:023E4F0002006F
:093E520009023500010100803273
:0E3E5B000904000005FFFFFF000705010240FB
:0E3E690000000705810240000007050202402C
:0E3E7700000007058402400000070586024097
:023E850000003B
:043E88000403090422
:0E3E8C0016034F00680069006F00200053000D
:083E9A00740061007400650072
:0E3EA200120341005400520049002000550058
:043EB0005300420079
:023EB40000000C
:010FDB0032E3
:010FDC0032E2
:010FDD0032E1
:010FDE0032E0
:010FDF0032DF
:010FE00032DE
:010FE10032DD
:010FE20032DC
:0601EA00E478FFF6D8FDE9
:0801C8007900E94400601B7A94
:0501D0000090169F786D
:0301D50010759210
:0A01D8003CE493F2A308B80002050E
:0801E20092D9F4DAF27592FFE4
:07024900750900750A00753C
:030250000B5275D9
:030253000C3E75E9
:030256000D1C7507
:020259000E3E57
:0A0FE30090E6B9E0FA740BB50200C5
:050FED0050030210E6B4
:070FF200EA2A2A900FF973AF
:070FF90002101D021032027C
:0610000010E60210470299
:0610060010E60210E602F4
:06100C00105C0210E60278
:06101200106202107A02D8
:0510180010940210C855
:0A101D0012115DE58260030210FB72
:0B10270090E6A0E0FA4401F00210FB8C
:0A1032001211E9E58260030210FBD1
:0B103C0090E6A0E0FA4401F00210FB77
:0A104700121237E58260030210FB6D
:0B10510090E6A0E0FA4401F00210FB62
:06105C001212EA0210FB73
:0E106200120940AA8290E740EAF090E68AE484
:0A107000F090E68B7401F00210FB13
:0E107A0090E6BAE0F582120944E582600302B6
:0210880010FB5B
:0A108A0090E6A0E0FA4401F0806750
:0910940090E6BCE0FA750F087546
:08109D0010007511408A821257
:0E10A5000938E582700A90E6A0E0FA4401F0F6
:0210B300804675
:0C10B50090E740E508F090E68AE4F09037
:0710C100E68B7401F080339F
:0C10C80090E6BCE0FA90E6BAE0F50F8A72
:0E10D4008212093CE582701F90E6A0E0FA440B
:0410E20001F0801584
:0E10E60090E6B9E0F582120948E582700890A4
:0710F400E6A0E0FA4401F060
:0810FB0090E6A0E04480F02221
:0B110300AA82747F5AFB7408B5030039
:09110E004049EB2B2B90111773E3
:071117000211320211360241
:06111E0011490211590203
:06112400114D02115902F9
:06112A00115102115902EF
:02113000115557
:0411320090E6A02281
:0A113600EA30E7067AA27BE68004A7
:041140007AA17BE62F
:051144008A828B83226A
:0411490090E6A32267
:04114D0090E6A42262
:0411510090E6A5225D
:0411550090E6A62258
:0411590090000022E0
:0A115D0090E6B8E0FABA80028022A2
:05116700BA81028008BE
:05116C00BA8202803789
:031171000211E187
:0E11740090E740E4F090E741F090E68AF090BA
:07118200E68B7402F0805CB3
:0A118900E50A25E0FAE509420290AC
:0E119300E740EAF090E741E4F090E68AF09041
:0711A100E68B7402F0803DB3
:0E11A80090E6BCE0F582121103AA82AB83EA46
:0611B6004B7003F58222DC
:0D11BC008A828B83E0FA30E0047A01800221
:0211C9007A00AA
:0E11CB0090E740EAF090E741E4F090E68AF009
:0811D90090E68B7402F0800423
:0411E10075820022F1
:0411E50075820122EC
:0C11E90090E6B8E0FA6005BA0237801109
:0C11F50090E6BAE0FABA0105750A008025
:0112010031BB
:0412020075820022CF
:0D12060090E6BAE0701A90E6BCE0F58212A6
:0E1213001103AA82AB83E0FC5304FE8A828B97
:0512210083ECF0800DDC
:0412260075820022AB
:09122A0090E6B9E0F582020948E2
:04123300758201229D
:0C12370090E6B8E0FA6008BA0202801FDE
:031243000212B2E2
:0B12460090E6BAE0FABA02030212BB05
:0C12510090E6BAE0FABA0105750A0180C7
:01125D005D33
:04125E007582002273
:0D12620090E6BAE0704690E6BCE0F582121E
:0D126F001103AA82AB83EA4B7003F58222C3
:0E127C008A828B83E0FC4304018A828B83EC20
:0E128A00F090E6BCE0FA53020F90E6BCE05490
:0D12980080C423541FFB90E683EB2AF090E6
:0912A500E683E0FA4420F0800D1C
:0412AE007582002223
:0912B20090E6B9E0F5820209485A
:0412BB007582012215
:0912BF00AA82D20210AF02C202A1
:0712C800EA600E750B1C75B6
:0312CF000C3E755D
:0312D2000D527545
:0412D5000E3E800C3D
:0412D900750B5275CA
:0312DD000C3E754F
:0312E0000D1C756D
:0212E3000E3EBD
:0512E500A20292AF22FD
:0A12EA0090E6BBE0FABA0102801999
:0512F400BA0202802790
:0512F900BA0302803081
:0612FE00BA06030213937F
:06130400BA07030213A664
:03130A000213B417
:0A130D007A007B3E90E6B3EBF07A25
:09131700007B3E90E6B4EAF022EE
:0913200090E6B3E50CF0AA0B9075
:05132900E6B4EAF02229
:0A132E007A887B3E7C8090E6BAE0EE
:03133800FD7E0037
:09133B008E070EEDB507028037A4
:0E1344008A828B838CF01214932AFAE43BFB0E
:0E13520074012AFFE43BF88C018F82888389A6
:0A136000F0121493FFBF0302800691
:06136A007A007B007C000C
:09137000EA4B4C6006EDB50600E5
:0213790050C062
:0E137B00EA4B4C600B90E6B3EBF090E6B4EA60
:02138900F02250
:08138B0090E6A0E04401F0220D
:0A1393007A127B3E90E6B3EBF07A8D
:09139D00127B3E90E6B4EAF02256
:0913A60090E6B3E50EF0AA0D90EB
:0513AF00E6B4EAF022A3
:0813B40090E6A0E04401F022E4
:0113BC0032FE
:0E13BD0020F71030F6118883A88220F507F67D
:0513CB00A883758300FA
:0113D00022FA
:0313D100F280F7B0
:0213D400F02205
:0113D60032E4
:0113D70032E3
:0113D80032E2
:0113D90032E1
:03004300023F0079
:093F000002033A000213D600028C
:083F09000FDE000203E80002D4
:083F110003520002039D0002AF
:083F19000FDB0002143000026E
:083F2100143100021432000209
:083F29001433000214360002FB
:083F31000D52000213D700023B
:083F39000D77000213D900020C
:083F41000FE000021430000241
:083F490014E500020FDC000288
:083F51000FDD00020FDF00028A
:083F59000FE100020FE200027B
:083F610014920002143000026A
:083F69001430000214300002C4
:083F7100142F000214340002B9
:083F79001437000214390002A4
:083F810014350002143800029F
:083F8900143A00021491000239
:083F91001427000214290002AC
:083F9900142B0002142D00029C
:083FA10014280002142A00029A
:083FA900142C0002142E00028A
:073FB10013D8000213BC004D
:0813DA00E50F451060467A01A1
:0713E200E50F25E0F50FE522
:0913E90010334012F510E5829565
:0A13F2000FE583951040030A80E622
:0313FC00C3E51036
:0713FF0013F510E50F13F5D3
:011406000FD6
:0A140700C3E582950FF5F0E583952B
:08141100104005F58385F0820F
:07141900C3E51013F510E517
:061420000F13F50FDAE1E5
:0114260022A3
:011427003292
:0801F0007800E84400600A7980
:0301F800007592FD
:0601FB003CE4F309D8FC0E
:080201007810E84400600C795C
:0B02090001903C00E4F0A3D8FCD9FAFF
:011428003291
:011429003290
:01142A00328F
:01142B00328E
:01142C00328D
:01142D00328C
:01142E00328B
:01142F00328A
:011430003289
:011431003288
:011432003287
:011433003286
:011434003285
:011435003284
:011436003283
:011437003282
:011438003281
:011439003280
:01143A00327F
:0E143B00AA82AB8390E600E05418C423541F2D
:04144900FCB40100EE
:0B144D00E433FC60067CB17D00801CD5
:0E14580090E600E05418C423541FFEBE0106A7
:061466007E617F0180049D
:04146C007EC27F02BB
:041470008E048F0552
:041474008C0F8D103C
:08147800150F74FFB50F0215FA
:01148000105B
:0A148100E50F451070F11ABAFF01E3
:01148B001B45
:05148C00EA4B70E422B0
:011491003228
:011492003227
:0301BB0075814803
:0A01BE001214E6E58260030201B6A8
:0E14930020F71430F6148883A88220F507E6AF
:0614A100A8837583002200
:0314A700E280F7E9
:0314AA00E49322A6
:0214AD00E0223B
:0E14AF00C2D5E58330E70DD2D5E4C39582F5B2
:0614BD0082E49583F58333
:0A14C300E51030E70BE4C3950FF5C8
:0514CD000FE49510F58D
:0114D2001009
:0E14D3001213DA30D50BE4C39582F582E4954E
:0314E10083F5830D
:0114E40022E5
:0114E50032D4
:0414E60075820022E9
:00000001FF
